:020000040800F2
:10000000C80700206D150008210500082305000819
:10001000270500082B0500082F0500080000000038
:100020000000000000000000000000003305000890
:1000300035050008000000003705000839050008F4
:100040008715000887150008871500088715000820
:100050008715000887150008871500088715000810
:100060008715000887150008871500088715000800
:1000700087150008871500088715000887150008F0
:1000800087150008871500088715000887150008E0
:1000900087150008871500088715000887150008D0
:1000A00087150008871500088715000887150008C0
:1000B00087150008871500088715000887150008B0
:1000C00087150008871500088715000887150008A0
:1000D00087150008D3120008ED1300087B270008DD
:1000E0008715000887150008871500088715000880
:1000F0008715000887150008871500088715000870
:10010000871500088715000887150008871500085F
:10011000871500088715000887150008871500084F
:10012000871500088715000887150008871500083F
:10013000DFF80CD002F014FF00480047650100080A
:10014000C8070020EFF30980704780F309887047E3
:10015000EFF30880704780F30888704740BA704713
:10016000C0BA70478AB000F075FD00F0DDFD4FF4B5
:10017000E13001F05FF84FF4165001F0E7F84FF46A
:10018000E13001F069F902F08FFA00F07AFB00F03B
:10019000DBFB00F025FD00F0C1FA00F03DFD57E16A
:1001A000AC4800F08BFB01287ED1AA488078AA4990
:1001B0000870A848C078A94908700846007802F07D
:1001C00054FD80460022A64B02F0CAFC04460D46B0
:1001D000A148007802F049FD064622462B4602F06F
:1001E000A6FBA04A03C29B4800789F490870994823
:1001F00040789E4908700846007802F036FD804637
:100200000022974B02F0ACFC04460D46964800785D
:1002100002F02BFD064622462B4602F088FB944A4C
:1002200003C200F0A4FB9349086000F0EBFC064613
:1002300002F00AFD0446904A904B02F01FFCCDE903
:10024000040100F0DFFC064602F0FEFC04460D4609
:1002500000F0D8FC019002F0F7FC0646884A894B72
:1002600002F00CFC804622462B4602F007FCCDE94A
:100270000201DDE9042302F05AFB0022784BCDE9AC
:10028000060102F054FB00227F4BCDE9080102F089
:1002900067FC824602F0F6FC7C4908607C48007BE3
:1002A000012808DA7A4800E0D0E0417B007B01EBCE
:1002B0000020784908600022774B6A4903C902F0A0
:1002C00013FD1BD201221102744800F0A6FE002289
:1002D0002021724800F0A1FE4FF4967000F0F7FC68
:1002E000012220216D4800F098FE00224FF4807119
:1002F0006A4800F092FE6AA002F044FE00226B4BB6
:100300005B4903C902F0F0FC1BD2012211026348D1
:1003100000F083FE00222021604800F07EFE4FF4B2
:10032000967000F0D4FC012220215C4800F075FE9C
:1003300000224FF48071594800F06FFE5CA002F07B
:1003400021FE4C48006850281BDD01221102534851
:1003500000F063FE00222021504800F05EFE4FF4C2
:10036000967000F0B4FC012220214C4800F055FEAC
:1003700000224FF48071494800F04FFE4FA002F078
:1003800001FE424800680A281BDD01221102434891
:1003900000F043FE00222021404800F03EFE4FF4D2
:1003A000967000F094FC012220213C4800F035FEBC
:1003B00000224FF48071394800F02FFE43A002F074
:1003C000E1FD3448006864281BDD01221102334836
:1003D00000F023FE00222021304800F01EFE4FF4E2
:1003E000967000F074FC012220212C4800F015FECC
:1003F00000224FF48071294800F00FFE37A002F070
:10040000C1FD24480068214909681A4A1268CDE9EB
:1004100002210490164803C8CDE9000111480CC818
:1004200032A002F0AFFD1B48006818490968114A64
:100430001268CDE9002102900D480A490CC803C991
:1004400002F005F942F2107000F041FC02F0BAF837
:10045000A6E6000024000020020000200300002087
:1004600000002440100000200000002001000020B7
:1004700008000020180000209A9999999999B93F8D
:100480002D431CEBE2361A3F000059401C000020AF
:10049000340100202000002000003E40000C0140FC
:1004A000CEC2B6C8B9FDB8DF0D0A00000000544046
:1004B000CAAAB6C8B9FDB8DF0D0A0000B9E2D5D5A1
:1004C000C7BFB6C8B9FDB8DF0D0A0000434FC5A8C5
:1004D000B6C8B9FDB8DF0D0A00000000504D322E3D
:1004E00035C5A8B6C8B9FDB8DF0D0A0074656D70D2
:1004F0003D256C662C68756D3D256C662C206C69FD
:100500006768742076616C75653D25642C4D5137A4
:100510003D25642C504D322E353D25640D0A0000DA
:10052000704700BFFEE700BFFEE700BFFEE700BF69
:10053000FEE7704770477047704700000CB5002019
:10054000019000906C48006840F480306A4908606F
:1005500000BF6948006800F4003000900198401C1A
:100560000190009818B90198B0F5A06FF1D16248D8
:10057000006800F4003010B10120009001E000207C
:1005800000900098012843D15C48006840F01000BA
:100590005A4908600846006820F0030008600846D1
:1005A000006840F0020008605348406852494860C3
:1005B0000846406848600846406840F480604860EB
:1005C0000846406820F47C1048600846406840F4C3
:1005D000E81048600846006840F08070086000BF7E
:1005E0004548006800F000700028F9D04248406893
:1005F00020F00300404948600846406840F002008F
:10060000486000BF3C48406800F00C000828F9D161
:100610000CBD10B5FFF792FF10BD10B5364800684D
:1006200040F00100344908600846406834490840F9
:100630003149486008460068324908402E49086040
:100640000846006820F4802008600846406820F4CE
:10065000FE0048604FF41F008860FFF7DAFF4FF09C
:1006600000602949086010BD10B50021002000225B
:10067000214B5B6803F00C0121B1042906D0082945
:1006800028D107E0214B224C236027E01F4B204C50
:10069000236023E0184B5B6803F47010164B5B6813
:1006A00003F48032022303EB904022B9194B4343F9
:1006B000174C23600DE0104B5B6803F4003323B14B
:1006C000144B4343124C236003E0104B4343104C44
:1006D000236003E00D4B0E4C236000BF00BF064BB0
:1006E0005B68C3F303130C4CE15C094B1B68CB4004
:1006F000074C236010BD00000010024000200240A3
:100700000000FFF8FFFFF6FE08ED00E000127A009F
:100710002C00002000093D00300000201CB500BF67
:100720001548806940F008001349886100BF00BF88
:100730000846806940F04000886100BF01200090B9
:1007400000230246202101900C4800F0F1FB01201B
:1007500000900023024620210190094800F0E8FBA8
:1007600001222021054800F058FC012220210448E4
:1007700000F053FC1CBD000000100240000C0140C2
:100780000018014010B56D48406820F470406B4976
:1007900048600846406840F440504860002068497E
:1007A0000860142000F093FA01206649C1F8AC01FA
:1007B0001E2000F068FA10BD10B500245F484068A4
:1007C00020F470405D4948600846406840F40040AD
:1007D000486004E0601CC4B2012000F054FA58489C
:1007E0008038006808B1642CF4DB642C01DB012044
:1007F00010BD002404E0601CC4B2012000F043FAE4
:100800004F488038006808B9642CF4DB642C01DBA5
:100810000120EDE70020EBE710B5002404E0601CA8
:10082000C4B2012000F02FFA45488038006808B1B2
:10083000642CF4DB002404E0601CC4B2012000F04E
:1008400022FA3F488038006808B9642CF4DB28207D
:1008500000F019FA3A488038006808B1012010BD4C
:100860000020FCE770B50024002506E06006040EB9
:10087000FFF7D2FF0443681CC5B2082DF6DB204603
:1008800070BD08B50121080201F00CFA4FF40060B8
:10089000ADF8000010208DF8030003208DF8020051
:1008A0006946264800F042FF4FF40061234800F0FB
:1008B000EAFFFFF767FFFFF77FFF08BD7CB504463F
:1008C000FFF760FFFFF778FF40BB002505E0FFF76B
:1008D000C9FF0DF80500681CC5B2052DF7DB9DF8B2
:1008E00000009DF8011008449DF8021008449DF88E
:1008F000031008449DF80410884211D19DF80000AF
:1009000020709DF8010060709DF80200A0709DF8B5
:100910000300E0709DF80400207101E001207CBD1F
:10092000207861780844A1780844E1780844217966
:10093000884201D10120F2E70020F0E700200140C9
:10094000AC0124420000244208B50121802001F0BE
:10095000A9F94FF48070ADF8000000208DF8030075
:100960006946124800F0E2FE00F0D5F808BD70B507
:100970000024002508E0062000F009F904440520C1
:1009800000F0A5F9681CC5B20A2DF4DB0A20B4FBFF
:10099000F0F4B4F57A6F01D94FF47A642820B4FBEF
:1009A000F0F0C0F16400C0B270BD0000001C014056
:1009B00000B585B001214FF4017001F073F94FF4D7
:1009C000004001F0D3F87D4801F0D4FB00200090F6
:1009D0008DF804008DF805004FF46020029000208F
:1009E000039001208DF810006946744801F0E9FB7E
:1009F000012001F0A3FD0121704801F00EFC6F48B9
:100A000001F02DFC00BF6D4801F02EFC0028FAD14A
:100A10006A4801F033FC00BF684801F034FC00284C
:100A2000FAD105B000BD10B50446072301222146C6
:100A3000624801F05EFC0121604801F02EFC00BF1D
:100A400002215E4801F09AFD0028F9D05B4801F0D0
:100A5000B7FC10BD70B50024002509E01020FFF799
:100A6000E2FF204484B2052000F031F9681CC5B2D1
:100A70000A2DF3DB0A2094FBF0F080B270BD2DE963
:100A8000F04107460C460025002608E03846FFF7EF
:100A9000CAFF0544052000F01AF9701CC6B2A64230
:100AA000F4DBB5FBF4F080B2BDE8F0812DE9F05F36
:100AB00014211020FFF7E3FF8346584602F0BFF8E9
:100AC000804602F0FEF806464FF066323C4B01F0DD
:100AD000D5FF04460D4622462B463A483A4901F0D6
:100AE000C7FF8046394A3A4B02F03AF806460022E0
:100AF000384B01F01CFF04460D460022364B2046C1
:100B0000294601F0BBFF064602F0BCF80FFA80FA56
:100B10005046BDE8F09F00B585B00121C80301F043
:100B2000C1F80121C80301F0D7F800214FF40040BB
:100B300001F0D2F8294801F01DFB002000908DF84B
:100B400004008DF805004FF460200290002003900F
:100B500001208DF810006946204801F032FB012188
:100B60001E4801F05AFB1D4801F079FB00BF1B48ED
:100B700001F07AFB0028FAD1184801F07FFB00BF92
:100B8000164801F080FB0028FAD105B000BD10B571
:100B90000446072301222146104801F0AAFB012147
:100BA0000E4801F07AFB00BF02210C4801F0E6FC80
:100BB0000028F9D0094801F003FC10BD00240140D1
:100BC00066664A3FE17A14AE47E1F63F22FDF675CC
:100BD000E09C713F0000394000005940003C01405A
:100BE00008B50121042001F05DF80220ADF80000F5
:100BF00000208DF803006946064800F097FDFFF7D6
:100C00008AFF08BD10B500240120FFF7C0FF04468D
:100C1000204610BD000801401CB500BF0B4880698C
:100C200040F008000949886100BF012000900023BE
:100C3000024601020190064800F07AF900224FF4C2
:100C40008071034800F0E9F91CBD0000001002406B
:100C5000000C014010B56FF0040000F0E8FC2E48D5
:100C600000682E49B0FBF1F02D4908700846007865
:100C700000EB4001C1EBC0104FF6FF7101EAC0006C
:100C80002849088010BD0146254A12784A434FF092
:100C9000E0235A6100229A611A46126942F0010269
:100CA0001A6100BF4FF0E022106900F001021AB192
:100CB00000F48032002AF5D04FF0E022126922F0D1
:100CC00001024FF0E0231A6100229A617047014649
:100CD000144A12884A434FF0E0235A6100229A6175
:100CE0001A46126942F001021A6100BF4FF0E02279
:100CF000106900F001021AB100F48032002AF5D028
:100D00004FF0E022126922F001024FF0E0231A6155
:100D100000229A61704700002C00002000127A0027
:100D2000400000204200002010B54FF4A06000F009
:100D30002FFC10BD4A0A52020243FE4B1A60704754
:100D40000146072323EA01021202FA4B1B1D186811
:100D50004FF6FF031840F84B18431043F54B1B1D8B
:100D6000186070472DE9F0410746884614461D4635
:100D70002846FFF7E5FFC5F1040007FA00F60F204B
:100D8000284100EA0800064306F00F06E21704EBCC
:100D9000D2625211920002F1E022D2F800212146E3
:100DA000E31704EBD3635B11A4EB431C012303FAA9
:100DB0000CF31A432046E31704EBD3635B119B004B
:100DC00003F1E023C3F80021DC48005D40EA06108F
:100DD000DA490855BDE8F0812DE9F04303460C4699
:100DE0000026002000250027DFF854C3A3EB0C0CDD
:100DF0004FEA9C26DFF84CC3DCF818C04CF0010C1D
:100E0000DFF84083C8F818C000BF69E04FF0010C5C
:100E10000CFA00F504EA0507AF4260D14FEA807C86
:100E20004FEA1C71DFF820C34FEA90085CF828C035
:100E30004FF00F0808FA01F82CEA080CDFF80883D5
:100E40004FEA900948F829C0C4464FEA90085CF878
:100E500028C006FA01F84CEA080CDFF8EC824FEAE9
:100E6000900948F829C0DFF8E4C2DCF800804FF0B0
:100E7000010C0CFA00FC48EA0C08DFF8D0C2CCF8F0
:100E8000008002F0010CBCF1000F11D0DFF8BCC2F1
:100E90000CF10C0CDCF800C04FF0010808FA00F867
:100EA0004CEA080CDFF8A48208F10C08C8F800C06E
:100EB00002F0020CBCF1000F11D0DFF890C20CF16F
:100EC000080CDCF800C04FF0010808FA00F84CEA02
:100ED000080CDFF8788208F10808C8F800C0401C48
:100EE000102893D3BDE8F08370B50B460021002491
:100EF000944DAD6945F00105924EB56100BF03E028
:100F00004900491C651CECB29C42F9DB8E4D083D42
:100F10006D6801FA00F6B5438B4E083E75603546A4
:100F20006D6802FA00F63543874E083E756070BD65
:100F30002DE9F04F0E461D46DDE909C400210027CA
:100F40008846002300BF64E04FF0010909FA01F769
:100F500006EA0708B8455BD10023012A01D0022A1E
:100F60000AD10CF0030305F0010943EA8903A2F159
:100F7000010943EAC90318E0BAB90CB9042314E023
:100F80000823D0F80C904FF0010A0AFA01FA29EA76
:100F90000A09C0F80C90D0F80CA004F0010909FA75
:100FA00001F94AEA090AC0F80CA0072916D8D0F8B6
:100FB00000904FEA810B4FF00F0A0AFA0BFA29EA68
:100FC0000A09C0F80090D0F800904FEA810A03FAAD
:100FD0000AFA49EA0A09C0F8009019E0D0F804902A
:100FE000A1F1080A4FEA8A0B4FF00F0A0AFA0BFA2E
:100FF00029EA0A09C0F80490D0F80490A1F1080A7F
:101000004FEA8A0A03FA0AFA49EA0A09C0F8049080
:10101000491C102998D3BDE8F08F02F001031BB1E1
:1010200003690B43036103E0036943EA014303617E
:10103000704702469068084008B1012070470020C0
:10104000FCE730BF704772B6704762B6704710B5A4
:1010500004462046FFF77FF810BD00B53948C06947
:1010600040F080503749C8613948406840F480708A
:10107000374948600846006840F0040008600846A8
:10108000006840F0020008602A480830006840F01C
:101090000400284908310860FFF7D3FF00BD264847
:1010A000001D2449091D0860704710B50246002143
:1010B0000020244B1B6843F48033224C23600AE059
:1010C00000BF204B1B6803F400331BB1B1F5004F88
:1010D00000D904E0491C4FF6F0739942F0D300BFE9
:1010E0004FF6F073994201D3012042E04FF4806340
:1010F000144C6360921E23465B6843EA824363603C
:1011000023465B6843F4803363601023114C2360F3
:1011100023461B6843F0020323600A4B1B6843F01D
:101120008073084C236000BF064B1B685B0E002BCE
:10113000FAD011E008ED00E00000FA0500E400E05C
:101140000008014000100240080001400004014076
:1011500000700040002002401F4B5B6843F0020318
:101160001D4C636000BF1C4B5B68C3F38103022B03
:10117000F9D110BD10B50446002017490861C860B8
:101180001420486100208861C8610846006840F06A
:101190000100086008464068104908400E49486050
:1011A000084600680E4908400B4908600846006878
:1011B00020F4802008600846406820F4FE00486063
:1011C0004FF41F0088602046FFF76FFF00214FF0AB
:1011D0000060FFF7AFFD10BD001002400000FFF8F7
:1011E000FFFFF6FE014600BF704700BFC34A1288EA
:1011F00002F04002002AF9D0C2B2C04B1B1D1A8077
:1012000070472DE9F04107460C46154600260DE0D3
:1012100014F8011B384600F0E5FE00BF40213846B7
:1012200000F04EFF0028F9D0701C86B2AE42EFDB12
:10123000BDE8F08110B586B00446012144F20500F6
:1012400000F030FD4FF40070ADF8140003208DF86D
:10125000160018208DF8170005A9A94800F066FAB5
:101260004FF48060ADF8140004208DF8170005A934
:10127000A34800F05BFA25208DF8000003208DF8CC
:1012800001008DF8020001208DF80300684600F08F
:1012900084F901940020ADF80800ADF80A00ADF81B
:1012A0000C00ADF810000C20ADF80E0001A9934819
:1012B00000F09FFD012240F22551904800F031FEE0
:1012C00001218E4800F021FE8EA001F05BFE06B0E9
:1012D00010BD10B540F22551884800F007FF10B34B
:1012E000864800F083FEC4B28C48008800F40040B9
:1012F000C8B98A48008800F4804060B10A2C03D045
:1013000000208649088020E08448008840F400409E
:101310008249088019E00D2C06D18048008840F4ED
:1013200080407E49088010E07C480088C0F30D00B2
:101330007B490C5479480088401C7849088008464D
:101340000088C72801DD0020088010BD10B586B0D8
:1013500004460121052000F0A5FC0121480400F00D
:10136000AEFC0420ADF8140003208DF81600182000
:101370008DF8170005A9624800F0D8F90820ADF8EB
:10138000140004208DF8170005A95D4800F0CEF97F
:1013900026208DF8000003208DF801008DF8020052
:1013A00001208DF80300684600F0F7F80194002052
:1013B000ADF80800ADF80A00ADF80C00ADF810006B
:1013C0000C20ADF80E0001A9564800F012FD0122D4
:1013D00040F22551534800F0A4FD0121514800F08E
:1013E00094FD51A001F0CEFD06B010BD10B540F245
:1013F00025514C4800F07AFE68B34A4800F0F6FDEB
:10140000C4B2422C05D100204D49088001204D492D
:1014100008704C48007801281DD14B48484909887C
:10142000445447480088401C4549088008460088C5
:10143000182810DB444840784D280CD10020414941
:1014400008703F480088C72802DD00203C4908801A
:1014500000203D49087010BD10B586B0044601213A
:10146000092000F01FFC0121880400F028FC4FF443
:101470008060ADF8140003208DF8160018208DF858
:10148000170005A9314800F051F94FF40060ADF89C
:10149000140004208DF8170005A92C4800F046F927
:1014A00027208DF8000002208DF801008DF8020041
:1014B00001208DF80300684600F06FF801940020C9
:1014C000ADF80800ADF80A00ADF80C00ADF810005A
:1014D0000C20ADF80E0001A91D4800F08AFC012285
:1014E00040F225511A4800F01CFD0121184800F077
:1014F0000CFD18A001F046FD06B010BD00380140FB
:10150000000801407573617274315F696E69745FC0
:10151000737563636573730D0A0000004800002053
:101520006C000020004400407573617274325F6982
:101530006E69745F737563636573730D0A000000F1
:101540004A0000204E00002034010020000C014021
:10155000004800407573617274335F696E69745F2F
:10156000737563636573730D0A0000000648804756
:1015700006480047FEE7FEE7FEE7FEE7FEE7FEE778
:10158000FEE7FEE7FEE7FEE71B0600083101000864
:1015900031490143314A1160704770B50021002381
:1015A0000F22C47804B32D4C246804F4E064C4F51D
:1015B000E064210AC1F10403CA40447804FA03F14B
:1015C0008478144021430901254C0678A1550478FC
:1015D00004F01F050124AC4005786D11AD0005F144
:1015E000E025C5F8004109E0047804F01F05012456
:1015F000AC401C4D0678761145F8264070BD1A4A5D
:101600000A400243154B1B1F1A60704739B1134A39
:10161000121D12680243114B1B1D1A6006E00F4A8F
:10162000121D126882430D4B1B1D1A60704704285F
:1016300008D14FF0E021096941F004014FF0E022A8
:10164000116107E04FF0E021096921F004014FF03A
:10165000E0221161704700000000FA050CED00E087
:1016600000E400E080E100E080FFFF1F10B50446C9
:10167000CC48844208D10121042000F02DFB002138
:10168000042000F029FB46E0C748844208D101212C
:10169000082000F021FB0021082000F01DFB3AE0AB
:1016A000C248844208D10121102000F015FB00211E
:1016B000102000F011FB2EE0BD48844208D101212A
:1016C000202000F009FB0021202000F005FB22E093
:1016D000B848844208D10121402000F0FDFA0021E1
:1016E000402000F0F9FA16E0B348844208D1012105
:1016F000802000F0F1FA0021802000F0EDFA0AE0ED
:10170000AE48844207D10121801500F0E5FA00219E
:10171000A01500F0E1FA10BD10B50121084600F057
:10172000DBFA0021012000F0D7FA10BD2DE9F041CD
:10173000024600250026002000230024002791F8FF
:1017400003C00CF00F0591F803C00CF0100CBCF1B5
:10175000000F03D091F802C04CEA050591F800C0D3
:10176000BCF1000F31D0146800202BE04FF0010CC9
:101770000CFA00F3B1F800C00CEA03069E4220D137
:1017800083004FF00F0C0CFA03F7BC4305FA03FC7F
:101790004CEA040491F803C0BCF1280F06D14FF0C5
:1017A000010C0CFA00FCC2F814C00AE091F803C066
:1017B000BCF1480F05D14FF0010C0CFA00FCC2F847
:1017C00010C0401C0828D1D31460B1F800C0BCF18F
:1017D000FF0F34DD546800202EE000F1080C4FF0BC
:1017E000010808FA0CF3B1F800C00CEA03069E42A7
:1017F00021D183004FF00F0C0CFA03F7BC4305FA1C
:1018000003FC4CEA040491F803C0BCF1280F05D195
:1018100000F1080C08FA0CF8C2F8148091F803C023
:10182000BCF1480F07D100F1080C4FF0010808FA8D
:101830000CF8C2F81080401C0828CED35460BDE8D4
:10184000F0814FF6FF710180022181700421C17087
:1018500070470246002093680B400BB1012000E066
:10186000002070470146886880B270470246002019
:10187000D3680B400BB1012000E000207047014607
:10188000C86880B2704701617047416170470AB112
:10189000016100E041617047C16070474FF48032E0
:1018A0000A4382618161826182698269704702466E
:1018B0000020434B18684FF68073184040EA02102E
:1018C00008433F4B186070473E49C8617047F0B508
:1018D0000A46002300240021002500F00046B6F14E
:1018E000004F02D1364EF16901E0354E7168C0F308
:1018F000034583B200F44016B6F5401F08D121F02D
:1019000070612F4E766826F070662D4F7E6012E073
:1019100000F48016B6F5801F06D1032606FA05F4FA
:10192000A14341F0706106E0460D360103FA06F668
:10193000B14341F0706122B1460D360103FA06F65B
:10194000314300F00046B6F1004F02D11C4EF16168
:1019500001E01B4E7160F0BD30B500228B071C0FFB
:101960000F2303FA04F2164B08338C1053F824307B
:101970009343134C08348D1044F8253023468C10C3
:1019800053F824308C07240F00FA04F423430C4C42
:1019900008348D1044F8253030BD0A49DC31086028
:1019A0007047000000080140000C01400010014099
:1019B0000014014000180140001C014000200140BB
:1019C0000000014000002042DF48006840F00100B4
:1019D000DD49086008464068DC490840DA4948604B
:1019E00008460068DA490840D74908600846006898
:1019F00020F4802008600846406820F4FE0048601B
:101A00004FF41F0088607047CF49096821F4803186
:101A1000CD4A11601146096821F480211160B0F5AA
:101A2000803F03D0B0F5802F0ED106E0C64909688B
:101A300041F48031C44A116007E0C349096841F4A8
:101A4000A021C14A116000E000BF00BF704710B57F
:101A500001460022002300204A11012A02D1BA4C7B
:101A6000236806E0022A02D1B74C236A01E0B64C93
:101A7000636A01F01F02012494401C400CB1012054
:101A800000E0002010BD38B50020009000240025A3
:101A900000BF3120FFF7DBFF05460098401C009097
:101AA0000098B0F5A06F01D0002DF2D03120FFF7E3
:101AB000CEFF08B1012400E00024204638BD0146D5
:101AC0000020A14A106820F0F80040EAC100106030
:101AD0007047A04908607047024600209A4B58683A
:101AE00020F47C1042EA01031843974B586070477A
:101AF00098490866704701460020934A506820F0D4
:101B000003000843506070478F48406800F00C00A5
:101B10007047014600208C4A506820F0F0000843CE
:101B20005060704701460020874A506820F4E0600A
:101B300008435060704701460020834A506820F4F3
:101B4000605040EAC1005060704729B17E4A527A25
:101B500002437D4B5A7204E07B4A527A82437A4BAD
:101B60005A7270477B49D83108607047014600209F
:101B7000754A506820F44040084350607047002187
:101B8000714A20321170704A82F82010012802D068
:101B900004280AD104E001216B4A2032117005E0CB
:101BA0000521694A2032117000E000BF00BF704774
:101BB0006949086070476449096A0143624A1162D1
:101BC0007047654944390860704730B500210022EC
:101BD000002400235C4D6D6805F00C0121B104293F
:101BE00005D0082923D105E05C4D056022E05B4D5E
:101BF00005601FE0544D6D6805F47012524D6D681C
:101C000005F48034022505EB92421CB9544D55432E
:101C100005600BE04C4D6D6805F400351DB1504D6D
:101C20005543056002E04D4D5543056002E04B4DC4
:101C3000056000BF00BF444D6D6805F0F001090963
:101C4000484D6B5C0568DD4045603F4D6D6805F4AF
:101C5000E061090A434D6B5C4568DD4085603A4DA3
:101C60006D6805F46051C90A3E4D6B5C4568DD4006
:101C7000C560354D6D6805F44041890B3A4D6B5C8C
:101C8000C568B5FBF3F5056130BD29B12E4A52692F
:101C900002432D4B5A6104E02B4A526982432A4B7E
:101CA0005A61704729B1284A92690243264B9A61CA
:101CB00004E0254A92698243234B9A61704729B117
:101CC000214AD2690243204BDA6104E01E4AD269FC
:101CD00082431D4BDA61704729B11B4AD268024327
:101CE000194BDA6004E0184AD2688243164BDA6076
:101CF000704729B1144A12690243134B1A6104E078
:101D0000114A12698243104B1A61704712494039D7
:101D1000086070470F49C86470470B49C871704725
:101D20000948406A40F080700749486270470146A0
:101D30000020054A92680A400AB1012000E0002014
:101D40007047014988727047001002400000FFF898
:101D5000FFFFF6FE000042428004424200127A0079
:101D600000093D004F0000205F00002010B5044630
:101D7000FB48844209D101218803FFF7ADFF002110
:101D80004FF48040FFF7A8FF32E0F648844209D1C3
:101D900001214804FFF7ADFF00214FF40030FFF7A9
:101DA000A8FF25E0F048844209D101218804FFF70B
:101DB000A0FF00214FF48020FFF79BFF18E0EB48C5
:101DC000844209D10121C804FFF793FF00214FF499
:101DD0000020FFF78EFF0BE0E548844208D1012187
:101DE0000805FFF786FF00214FF48010FFF781FF01
:101DF00010BD2DE9F04786B005460E460024A246E8
:101E000000BFA1460027B08900B100BF2F462C8A31
:101E10004CF6FF700440F08804432C82AC894EF6E7
:101E2000F3100440B08831890843718908430443A2
:101E3000AC81AC8A4FF6FF400440B0890443AC82C9
:101E400001A8FFF7C2FEC648874202D1DDF810A004
:101E500001E0DDF80CA0A88900F4004040B10AEBD5
:101E6000CA0000EB0A1031684900B0FBF1F807E046
:101E70000AEBCA0000EB0A1031688900B0FBF1F8E8
:101E80006420B8FBF0F004012009642101FB1089F3
:101E9000A88900F4004040B1322000EBC900B0FB3B
:101EA000F1F000F00700044308E0322000EB0910D5
:101EB0006421B0FBF1F000F00F0004432C8106B068
:101EC000BDE8F0874FF41651016000218180C18088
:101ED00001810C21418100218181704710B50246AA
:101EE0000020108A4FF2FF0318400B884C882343D0
:101EF0008C882343CC8823431843108210BD0021D3
:101F0000018041808180C180704721B1828942F483
:101F10000052828104E082894DF6FF731A4082816B
:101F20007047F0B50346002400260025002040F647
:101F30006A17B94200D100BF1846C1F3421401F03C
:101F40001F06012707FA06F5012C01D10C3004E029
:101F5000022C01D1103000E014301AB107682F4371
:101F6000076002E00768AF430760F0BD1AB1838ADB
:101F70000B43838202E0838A8B4383827047028A09
:101F80004FF6F0731A400282028A0A4302827047B7
:101F900082894FF2FF731A40828182890A438281CB
:101FA000704721B1828942F00202828104E0828975
:101FB0004FF6FD731A4082817047028A4FF6DF7335
:101FC0001A400282028A0A430282704721B1028AC1
:101FD00042F48042028204E0028A4BF6FF731A4008
:101FE00002827047C1F308028280704701468888E8
:101FF000C0F308007047818941F001018181704779
:10200000028BD2B20283028B42EA01220283704722
:10201000028B02F47F420283028B0A4302837047E1
:1020200021B1828A42F02002828204E0828A4FF645
:10203000DF731A408282704721B1828A42F0100217
:10204000828204E0828A4FF6EF731A4082827047E0
:1020500021B1828A42F00802828204E0828A4FF62D
:10206000F7731A408282704721B1828942F400429C
:10207000828103E08289C2F30E028281704721B11E
:10208000828A42F40062828204E0828A4FF2FF7305
:102090001A4082827047828A4FF6FB731A4082820E
:1020A000828A0A438282704721B1828A42F0020208
:1020B000828204E0828A4FF6FD731A408282704762
:1020C00002460020B1F5007F00D100BF13880B400D
:1020D0000BB1012000E00020704701F40072B2F55E
:1020E000007F00D100BFCA430280704770B502462E
:1020F000002400230025002040F66A16B14200D1DA
:1021000000BFC1F3421501F01F03012606FA03F3D5
:10211000012D02D19689334006E0022D02D1168AA4
:10212000334001E0968A33400C12012606FA04F48B
:102130001688344013B10CB1012000E0002070BDBE
:1021400010B50022002340F66A14A14200D100BF5E
:102150000A1201249440A3B2DC43048010BD0000A5
:10216000003801400044004000480040004C00405E
:102170000050004010B50446FA48844208D10121BD
:102180004015FFF7A9FD00216015FFF7A5FD17E039
:10219000F548844208D101210015FFF79DFD00217B
:1021A0002015FFF799FD0BE0F048844208D101218A
:1021B000C803FFF791FD00214FF40040FFF78CFDAD
:1021C00010BD30B50246002000235068E84C204086
:1021D0000D790C6844EA0524204350609068E54C72
:1021E0002040D1E902542C434D7944EA4504204370
:1021F0009060D06A20F470000C7C641EE4B223432B
:1022000040EA0350D06230BD00210160017141718C
:102210008160C16001210174704721B1826842F080
:102220000102826003E0826822F00102826070474E
:1022300021B1826842F48072826003E0826822F4F5
:1022400080728260704710B50023CBB21AB1446827
:102250001C43446002E044689C43446010BD8168B4
:1022600041F0080181607047014600208A6802F051
:1022700008020AB1012000E000207047816841F0A7
:10228000040181607047014600208A6802F0040260
:102290000AB1012000E00020704721B1826842F4B9
:1022A000A002826003E0826822F4A002826070478C
:1022B000014600208A6802F480020AB1012000E091
:1022C0000020704710B50A4600210023416821F420
:1022D0006041531E41EA4331416010BD21B1426863
:1022E00042F40062426003E0426822F4006242600D
:1022F0007047F0B504460D4600200021092D11DD80
:10230000E068A5F10A0606EB4607072606FA07F17C
:102310008843A5F10A0606EB460603FA06F10843D0
:10232000E0600CE0206905EB4507072606FA07F197
:10233000884305EB450603FA06F108432061072AA6
:102340000FDA606B561E06EB86071F2606FA07F1AA
:102350008843561E06EB860605FA06F108436063BD
:1023600022E00D2A0FDA206BD61F06EB86071F2608
:1023700006FA07F18843D61F06EB860605FA06F132
:102380000843206310E0E06AA2F10D0606EB860721
:102390001F2606FA07F18843A2F10D0606EB860612
:1023A00005FA06F10843E062F0BD21B1826842F40B
:1023B0008012826003E0826822F48012826070479B
:1023C0000146C86C80B2704766484C300068704760
:1023D00021B1426842F48062426003E0426822F424
:1023E00080624260704721B1426842F4805242608C
:1023F00003E0426822F48052426070470A4600219E
:10240000816821F4E04111438160704721B1826805
:1024100042F40042826003E0826822F4004282605B
:10242000704721B1826842F40212826003E0826840
:1024300022F4021282607047014600208A6802F48A
:1024400000120AB1012000E000207047F0B50446F8
:102450001546002000220026092911DDE068A1F1BF
:102460000A0707EB470C072707FA0CF29043A1F184
:102470000A0707EB470703FA07F21043E0600CE096
:10248000206901EB410C072707FA0CF2904301EB9E
:10249000410703FA07F210432061A06BC0F3015615
:1024A000EF1C06F1010CA7EB0C0707EB870C1F27AD
:1024B00007FA0CF29043EF1C06F1010CA7EB0C0796
:1024C00007EB870701FA07F21043A063F0BD10B5D0
:1024D0000A4600210023816B21F44011531E41EA7A
:1024E0000351816310BD08B5002300930090009B49
:1024F0000B440093009B1A6008BD08B502460020FB
:102500000090009201F12800009B18440090009870
:10251000006880B208BD0A4600214168164B194088
:102520001143416070474162826270470A46002150
:10253000416821F01F0111434160704740B10949D2
:102540000831096841F40001064A0832116007E0C9
:1025500004490831096821F40001024A0832116077
:10256000704700000024014000280140003C014069
:10257000FFFEF0FFFDF7F1FFFFFD3FFF02460020E9
:1025800013680B400BB1012000E000207047CA43E4
:102590000260704770B502460020002300240B1231
:1025A0005568CEB205EA060415681D4015B10CB198
:1025B000012000E0002070BD00220A12D343036016
:1025C0007047000010B54FF480717B4800F08BF924
:1025D00000207A49088010BD7848008808B9012099
:1025E00070477648008876490988884203D10020E0
:1025F00072490880F4E77148008871490880012019
:10260000EEE72DE9F04104460D46C826204600F0CD
:1026100087F987B23A4621466A48FEF7F2FD0FE095
:10262000FFF7DAFF48B92946634800F067F920B19F
:10263000FFF7C8FF0020BDE8F0810A20FEF747FB46
:10264000301EA6F10101CEB2EAD10120F3E72DE957
:10265000F047ADF5087D04460D4616461F460DF5BC
:10266000107898E80007FFF7ADFF57488DE8F007AE
:102670005649026808A800F095FC03E04FF4FA7090
:10268000FEF725FB52A108A8FFF7BBFF0028F5D1F4
:102690004FF4007108A800F026F96420FEF717FB3C
:1026A0000DF5087DBDE8F08710B5FFF78BFF49A059
:1026B00000F068FC03E04FF4FA70FEF708FB44A159
:1026C00046A0FFF79EFF0028F5D146A000F05AFC77
:1026D00003E04FF4FA70FEF7FAFA41A144A0FFF7C5
:1026E00090FF0028F5D145A000F04CFC03E04FF42A
:1026F000FA70FEF7ECFA36A143A0FFF782FF00283C
:10270000F5D145A000F03EFC03E04FF4FA70FEF76F
:10271000DEFA2FA144A0FFF774FF0028F5D146A0F0
:1027200000F030FC03E04FF4FA70FEF7D0FA45A158
:1027300046A0FFF766FF0028F5D14CA000F022FC70
:1027400003E04FF4FA70FEF7C2FA21A14C48FFF7FC
:1027500058FF0028F5D14BA000F014FC03E04FF423
:10276000FA70FEF7B4FA1AA14AA0FFF74AFF002850
:10277000F5D153A000F006FC10BD10B540F2255174
:102780001048FFF7B3FCB0B10C480088FF2802D90D
:1027900000200A4908800B48001D0088C1B2074884
:1027A00002880088401C054B188003488154202172
:1027B0000448FFF792FC10BDC40200206400002012
:1027C00066000020004800406800002038390008FA
:1027D0004F4B0000302E2041540D0A0041540D0A89
:1027E00000000000312E2041542B5253540D0A009A
:1027F00041542B5253540D0A00000000322E204346
:10280000574D4F44450D0A0041542B43574D4F44FB
:10281000453D310D0A000000332E2041542B435713
:10282000444843500D0A000041542B435744484349
:10283000503D312C310D0A00342E2043574A41506F
:102840000D0A0000474F54204950000041542B43CB
:10285000574A41503D22373237222C22737370374A
:10286000323734353638220D0A000000352E204D1F
:10287000515454555345524346470D0A0000000039
:1028800088380008362E204D515454434F4E4E0D7B
:102890000A00000041542B4D515454434F4E4E3DBD
:1028A000302C226D717474732E6865636C6F75645F
:1028B000732E636F6D222C313838332C310D0A00A2
:1028C000372E204553503832363620496E697420F1
:1028D0004F4B0D0A00000000D2B201E000F8012BBE
:1028E000491EFBD270470022F6E710B513460A4690
:1028F00004461946FFF7F0FF204610BD30B50546E7
:102900002A460B4612F8010B13F8014B08B1A042FE
:10291000F8D01CB1002802D06D1CF1E7284630BD6C
:10292000421C10F8011B0029FBD1801A70472DE9C9
:10293000FE4F804681EA0300C00F0C46009021F054
:10294000004123F00045B8EB0200A94105D2404602
:10295000214690461C460B46024623F00040104399
:1029600047D0270DC7F30A00C3F30A510290401A5B
:10297000019040286BDAC3F3130040F4801B0098E9
:10298000924620B10023D2EB030A63EB0B0B0198B4
:102990005946C0F14002504600F005FA06460D4681
:1029A00050465946019A00F01DFA10EB08006141AB
:1029B000002487EA115284EAE7731A4340D0009A50
:1029C00062B3019A012A4FEA075215DC001B61EB42
:1029D00002014FF0004202EA0752CDE90042001C1A
:1029E00041F5801132462B4600F054FA03B0BDE8A1
:1029F000F08F40462146F9E7001B61EB0201001C05
:102A000041F5801300185B412018A2F5001747EB31
:102A1000030140EAD570B6196D4111E06D084FEA27
:102A2000360645EAC0754FEA0752001B61EB02010A
:102A3000001C41F5801149084FEA3000001951414E
:102A400032462B4603B0BDE8F04F00F014BA0098B0
:102A5000012240000023D0EB020263EBE0730098F8
:102A600021464FEAE074B8EB000061EB0401E9E7AE
:102A700083F000435BE781F0004158E72DE9FE4F0A
:102A800081EA030404F0004421F0004100944FF077
:102A9000000B23F0004350EA01045ED052EA030425
:102AA0005BD0C3F30A54C1F30A552C44A4F2F334A7
:102AB0000194A0FB0254C1F3130141F48011C3F34C
:102AC000130343F4801301FB024400FB034E840A0A
:102AD000970A44EA815447EA8357A4FB07680295A2
:102AE0008D0A05FB07854FEA932C04FB0C54270540
:102AF000029D4FEA065847EA1637B5EB08056EEB1C
:102B0000070C870E920E47EA811742EA8312A7FB51
:102B10000201B6EB0B0164EB00042B0D43EA0C330E
:102B20005E1844EB1C50DA465146E7FB0201C5F340
:102B300013044FEA0B3343EA14534FEA0432019C67
:102B400043EA0603A4F10C040294009CCDE900B40E
:102B500000F0A0F903B0BDE8F08F00200146F9E7CE
:102B60002DE9F04D81EA030404F0004B21F000450B
:102B700014464FF0000A23F0004150EA050220D02D
:102B800054EA01021DD0C5F30A570246C5F31303E8
:102B9000C1F31300C1F30A5640F4801543F48013C7
:102BA000A7EB0608101BD64608F2FD3873EB0500AC
:102BB00002D308F1010801E092185B41B8F1000F5F
:102BC00003DA00200146BDE8F08D00204FF48011AB
:102BD000064684460EE0171B73EB050705D3121B50
:102BE00063EB050306434CEA010C49084FEA300049
:102BF00092185B4150EA0107EDD152EA030012D06E
:102C000082EA040083EA0501084305D0101BAB41AA
:102C100006D20122002306E000224FF0004302E02A
:102C20006FF0010253101AEB06004CEB085110EB49
:102C30000A0041EB0B01BDE8F04D00F01CB99623F2
:102C40000022114600F0E9B80EB5C10F80EAE0702D
:102C50000844CA07002140F233438DE80E000A46BB
:102C60000B4600F017F903B000BD0EB540F233413A
:102C700002910021CDE900110A460B4600F00AF945
:102C800003B000BD70B5C1F30A5201F00045002445
:102C9000C1F3130140F2FF3341F480119A4201DA8B
:102CA000002070BD40F233439A42A2F2334203DC6B
:102CB000524200F087F800E090402C43F1D04042AF
:102CC00070BD00F0004230F000400AD0C10D01F5A7
:102CD0006071C0F3160042EA0151C2084007114377
:102CE000704700200146704730B5041E71F10004A2
:102CF00004DB4FF00044404264EB0101141E73F109
:102D0000000405DB1C464FF00043524263EB040312
:102D1000994208BF904230BD30B50B4601460020B5
:102D20002022012409E021FA02F59D4205D303FA8D
:102D300002F5491B04FA02F52844151EA2F101020E
:102D4000F1DC30BD2DE9F05F0546002092469B4640
:102D500088460646814640241BE0284641464746B1
:102D6000224600F02FF853465A46C01A914110D31C
:102D700011461846224600F016F82D1A67EB010896
:102D80004F4622460120002100F00DF817EB000904
:102D90004E41201EA4F10104DFDC484631462A469C
:102DA0004346BDE8F09F202A04DB203A00FA02F1F6
:102DB000002070479140C2F1200320FA03F3194329
:102DC00090407047202A04DB203A21FA02F00021CB
:102DD000704721FA02F3D040C2F12002914008432B
:102DE00019467047202A06DBCB17203A41FA02F039
:102DF00043EAE07306E041FA02F3D040C2F1200258
:102E000091400843194670470029A8BF7047401CED
:102E1000490008BF20F00100704710B4B0FA80FCF0
:102E200000FA0CF050EA010404BF10BC704749B12D
:102E3000CCF1200421FA04F411FA0CF118BF01219D
:102E400021430843A3EB0C01CB1D4FEA00614FEA7D
:102E5000102042BF002010BC704700EBC35010444C
:102E60000029A4BF10BC7047401C490008BF20F0D7
:102E7000010010BC704710B5141E73F1000408DA8D
:102E8000401C41F1000192185B411A4301D120F02E
:102E9000010010BD2DE9F04D92469B4611B1B1FAEB
:102EA00081F202E0B0FA80F220329046FFF77BFF19
:102EB00004460F4640EA0A0041EA0B0153465A46CF
:102EC000084313D0114653EA010019D0C8F140025B
:102ED0005046FFF777FF05460E4650465946424694
:102EE000FFF761FF084305D0012004E02046394682
:102EF000BDE8F08D0020054346EAE0762C433743D9
:102F00000A986305E40AA0EB08000022FD0A44EADF
:102F100047540A3002D500200146E9E7010510199F
:102F20006941DDE9084500196941BDE8F04DA2E7B6
:102F3000C1F30A52C1F3130140F2FF3341F480118F
:102F40009A4202DA00200146704740F233439A4227
:102F5000A2F2334202DC5242FFF734BFFFF723BF35
:102F6000064C074D06E0E06840F0010394E80700D6
:102F700098471034AC42F6D3FDF7DEF8243A000847
:102F8000443A00080FB4054B10B503A9044A02984F
:102F900000F0DEF810BC5DF814FB0000EB11000837
:102FA000440000200FB4084B10B504A902AA0398EE
:102FB00000F0CEF8044602A9002000F060FC204694
:102FC00010BC5DF814FB00007F38000802E008C860
:102FD000121F08C1002AFAD170477047002001E093
:102FE00001C1121F002AFBD1704700002DE9FF5FCD
:102FF000DDE90220010DDDF838B0024318D044F6B7
:103000001050A1F2FF3141430D140F98012820D038
:10301000A5EB0B00401C5FEA000A4FF00004474E8E
:10302000DFF81C91A046504616D5CAF1000728E0EB
:103030000F98012443A2012808D0002100980F9B7B
:10304000C0E90021C0E90243BDE8FF9F6FEA0B0120
:10305000F4E7CBF10000DEE7074612E0F80707D0FF
:103060002246334640464946FFF708FD80468946DA
:103070002246334610461946FFF700FD04460E4629
:103080007F10002FEAD1DDE90201BAF1000F4246BC
:103090004B4602DAFFF7F2FC01E0FFF761FD044660
:1030A0000E460022284BFFF71FFE03D84FF0FF30DB
:1030B000014607E00022254B20463146FFF737FC4A
:1030C000FFF736FF102409E0002C0ADB0A22002358
:1030D000FFF738FE019B30321A55641E50EA010298
:1030E000F2D1641C019AC4F1110314440F9A012A0D
:1030F00003D0012208430DD10AE0084304D0002088
:103100004FF0110B0F9080E7A3EB0B056D1E0DE048
:103110005B4504DD4FF0000205F1010504E003DA30
:103120004FF00002A5F10105002AECD000980F999C
:10313000C0E90231C0E9004586E7000000002440F4
:103140000000F03F300000000000F0430000E03FCE
:103150002DE9FF4F95B09B468946064600250FE2B4
:10316000252877D100242746F84A0121059400E05C
:10317000044316F8013F203B01FA03F01042F7D157
:1031800030782A2811D06FF02F033078A0F1300268
:10319000092A16D8059A44F0020402EB820203EBD6
:1031A00042021044761C0590EFE759F8042B059273
:1031B000002A03DA504244F40054059044F002041B
:1031C000761C30782E2816D116F8010F44F004042E
:1031D0002A280DD06FF02F023078A0F13003092B90
:1031E00009D807EB870302EB4303C718761CF3E704
:1031F00059F8047B761C30786C280FD006DC4C28FC
:1032000017D068280DD06A2814D104E0742810D093
:103210007A280FD10DE044F400140AE044F480143D
:1032200001E044F440147278824202D104F5801423
:10323000761C761C307866280BD013DC582877D0A3
:1032400009DC002875D04528F6D04628F4D0472858
:103250001AD19DE118E0632835D0642879D065281B
:1032600012D195E1702873D008DC6728F1D0692865
:103270006FD06E280DD06F2806D1B5E073282CD002
:10328000752875D0782874D05A46179990476D1CC8
:1032900075E1C4F30250022809D003280DD0D9F8F3
:1032A000001004280DD00D6009F1040967E1D9F878
:1032B0000010EA17C1E90052F6E7D9F800100D80B6
:1032C000F2E70D70F0E719F8041B8DF800100020EC
:1032D0008DF80100EA46012003E059F804AB4FF0F5
:1032E000FF3061074FF0000102D40DE008F1010149
:1032F0008846B9420FDA8045F8DB1AF80810002931
:10330000F4D108E008F1010188468142FADB1AF89D
:1033100008100029F6D105985B46A0EB0807214666
:103320003846179A00F094FA284400EB080507E0A5
:103330004DE029E10DE01AF8010B5A461799904724
:10334000B8F10108F7D25B4621463846179A13E1D7
:1033500042E00A220092C4F302524FF0000A022A0D
:1033600008D059F804CB032A4FEAEC710AD00DE0DB
:1033700029E02AE009F1070121F00702F2E802C181
:10338000914609E00FFA8CFC4FEAEC71042A03D154
:103390004FFA8CFC4FEAEC71002907DA0A4600214B
:1033A000DCF1000C61EB02012D2202E0220504D5C4
:1033B0002B228DF80420012203E0E20701D0202215
:1033C000F7E7904659E00A2102E010220DE01021B3
:1033D0004FF0000A00910BE010224FF0000A44F079
:1033E00004040827009203E008224FF0000A00922C
:1033F000C4F30252022A05D059F804CB0021032A53
:1034000008D009E009F1070121F00702F2E802C142
:10341000914605E01FFA8CFC042A01D10CF0FF0C48
:103420004FF00008220728D5702806D0009B83F0B3
:10343000100353EA0A0305D00EE040228DF8042061
:10344000012208E05CEA010206D030228DF8042057
:103450008DF8050002229046009B83F0080353EA92
:103460000A030AD15CEA010201D1620705D53022C4
:103470008DF804204FF001087F1E582804D034A096
:1034800003900EA802900DE036A0F9E7534660467F
:10349000009AFFF757FC84460398825C0298401E0E
:1034A000029002705CEA0100F0D1029806A9081AA5
:1034B00000F1200A600702D524F4803400E00127DF
:1034C000574502DDA7EB0A0000E0002000EB0A01EF
:1034D000009005984144401A0590E00306D45B46ED
:1034E0002146179A059800F0B3F90544002706E035
:1034F00001A85A46C05D179990476D1C7F1C47452F
:10350000F6DBE0030CD55B462146179A059800F0E0
:103510009FF9054404E030205A46179990476D1CE6
:103520000099481E00900029F5DC08E002980299F5
:103530005A460078491C0291179990476D1CBAF1C0
:103540000001AAF1010AF1DC65E10000092801008F
:103550003031323334353637383961626364656609
:1035600000000000303132333435363738394142CB
:10357000434445460000000000F058F90544761C1D
:10358000307800287FF4ECAD19B02846BDE8F08F04
:10359000620700D4062709F1070222F0070CFCE8B5
:1035A0000223E14603F000485FEA080C02D00FF264
:1035B000702C0DE05FEA045C02D50FF2682C07E086
:1035C0005FEAC47C02D00FF2602C01E0AFF2700C15
:1035D0004FF0FF3823F00043CDF850C065280CD0E1
:1035E00006DC452809D046281DD047283DD13DE0BE
:1035F000662818D067287ED138E00021112F01DB22
:10360000112000E0781CCDE9000106A90EA8FFF703
:10361000EDFCDDE90F010E9A03910021009207F104
:10362000010A04914DE04FF000400097CDE90110F0
:1036300006A90EA8FFF7DAFCDDE90F0203920E9B44
:1036400011990022DDF80CA00093049211B9791CA5
:1036500000EB010AB7EB0A0004D4C0F1FF3007F118
:10366000010A0490AAEB0700019044E0012F00DA60
:1036700001270021112F01DD112000E03846CDE99E
:10368000000106A90EA8FFF7B1FCDDE90F010E9AB3
:103690000391002104910092BA4621070CD40399AA
:1036A000514500DA8A46BAF1010F05DD009AAAF108
:1036B0000101515C302908D0B84202DA10F1040F40
:1036C00006DA0121CDE9011015E0AAF10101E9E7CF
:1036D000002805DC049901440491AAEB000102E0F2
:1036E000411C514500DD8A460499401A401C019056
:1036F0004FF000400290200704D40198504501DBB0
:10370000CDF8048000208DF84F0002980DF14F078E
:10371000B0F1004F25D02B200E9002984FF00208F8
:1037200000280CDA404202902D200E9007E00A217A
:103730000298FFF7F1FA3031029007F8011DB8F155
:103740000001A8F10108F2DC02980028EFD1791EEF
:103750000E980870307800F0200040F0450007F81F
:10376000020D12A8C01B00F107081498007800B1E0
:10377000012000EB0A01019801EBE071059841443A
:10378000401A401E0590E00306D45B462146179A76
:10379000059800F05DF805441498007818B15A4671
:1037A000179990476D1CE00324D55B462146179A74
:1037B000059800F04DF805441CE00498002807DB4C
:1037C000DDE90301884203DD0098405C179901E0C0
:1037D000179930205A469047049805F10105401C7E
:1037E00004900198401E019004D12E205A4617994A
:1037F00090476D1CBAF10001AAF1010ADDDC05E079
:1038000017F8010B5A46179990476D1CB8F1000143
:10381000A8F10108F4DC5B462146179A0598ABE64F
:103820002D0000002B000000200000002DE9F041D9
:10383000044600251E461746880404D405E0394690
:103840002020B0476D1C641EF9D52846BDE8F081E4
:103850002DE9F041044600251E469046C80301D5D7
:10386000302700E02027880404D505E0414638468B
:10387000B0476D1C641EF9D52846BDE8F0810A6882
:10388000531C0B601070704741542B4D51545455CC
:103890005345524346473D302C312C226D71747490
:1038A00031222C227535764B79356B4A686C222C87
:1038B0002276657273696F6E3D323031382D31304A
:1038C0002D3331267265733D70726F647563747346
:1038D0002532467535764B79356B4A686C2532460C
:1038E000646576696365732532466D71747431263B
:1038F00065743D32383137343438343836266D65A6
:1039000074686F643D6D6435267369676E3D456507
:1039100025324273326D5A705A72333332535167C3
:10392000323978687077253344253344222C302C83
:10393000302C22220D0A000041542B4D515454507A
:1039400055423D302C222573222C227B5C22696457
:103950005C223A5C223132335C225C2C5C22706146
:1039600072616D735C223A7B5C2274656D705C22BF
:103970003A7B5C2276616C75655C223A256C665CEC
:103980007D5C2C5C2268756D695C223A7B5C2276DA
:10399000616C75655C223A256C665C7D5C2C5C22F2
:1039A000616463785C223A7B5C2276616C75655C4D
:1039B000223A25645C7D5C2C5C22434F706D6D5C0B
:1039C000223A7B5C2276616C75655C223A25645CE8
:1039D0007D5C2C5C22504D706D6D5C223A7B5C22CC
:1039E00076616C75655C223A25645C7D7D7D222C58
:1039F000302C300D0A000000247379732F75357652
:103A00004B79356B4A686C2F6D717474312F746803
:103A1000696E672F70726F70657274792F706F7333
:103A200074000000443A0008000000206C00000010
:103A3000CC2F0008B03A00086C0000205C070000A2
:103A4000DC2F000800000000000000000000000063
:103A50000000000000000000000000000000000066
:103A60000000000000000000000000000000000056
:103A700000A24A040000000000000000010203044C
:103A80000607080900000000000000000000000018
:103A9000000000000000000102030401020304060C
:103AA000070809020406080000000000F8390008B1
:0400000508000131BD
:00000001FF
